{
  "_format": "hh-sol-artifact-1",
  "contractName": "MedicalRecordValidator",
  "sourceName": "contracts/MedicalRecordValidatorContract.sol",
  "abi": [
    {
      "inputs": [],
      "stateMutability": "nonpayable",
      "type": "constructor"
    },
    {
      "inputs": [
        {
          "components": [
            {
              "internalType": "string",
              "name": "id",
              "type": "string"
            },
            {
              "internalType": "bytes16",
              "name": "patientId",
              "type": "bytes16"
            },
            {
              "internalType": "bytes16",
              "name": "doctorId",
              "type": "bytes16"
            },
            {
              "internalType": "string",
              "name": "detail",
              "type": "string"
            },
            {
              "internalType": "string",
              "name": "createdAt",
              "type": "string"
            }
          ],
          "internalType": "struct MedicalRecordValidator.Record",
          "name": "record",
          "type": "tuple"
        }
      ],
      "name": "addRecord",
      "outputs": [],
      "stateMutability": "nonpayable",
      "type": "function"
    },
    {
      "inputs": [],
      "name": "getNumberOfRecords",
      "outputs": [
        {
          "internalType": "uint256",
          "name": "",
          "type": "uint256"
        }
      ],
      "stateMutability": "view",
      "type": "function"
    },
    {
      "inputs": [
        {
          "components": [
            {
              "internalType": "string",
              "name": "id",
              "type": "string"
            },
            {
              "internalType": "bytes16",
              "name": "patientId",
              "type": "bytes16"
            },
            {
              "internalType": "bytes16",
              "name": "doctorId",
              "type": "bytes16"
            },
            {
              "internalType": "string",
              "name": "detail",
              "type": "string"
            },
            {
              "internalType": "string",
              "name": "createdAt",
              "type": "string"
            }
          ],
          "internalType": "struct MedicalRecordValidator.Record[]",
          "name": "records",
          "type": "tuple[]"
        }
      ],
      "name": "validateRecords",
      "outputs": [
        {
          "internalType": "bool",
          "name": "",
          "type": "bool"
        }
      ],
      "stateMutability": "view",
      "type": "function"
    }
  ],
  "bytecode": "0x6080604052348015600f57600080fd5b50600080801b908060018154018082558091505060019003906000526020600020016000909190919091505560016000815480929190604c90608e565b919050555060d1565b7f4e487b7100000000000000000000000000000000000000000000000000000000600052601160045260246000fd5b6000819050919050565b60006097826084565b91507fffffffffffffffffffffffffffffffffffffffffffffffffffffffffffffffff820360c65760c56055565b5b600182019050919050565b6107f3806100e06000396000f3fe608060405234801561001057600080fd5b50600436106100415760003560e01c80634aaa41d31461004657806372488c1514610076578063949f2cef14610092575b600080fd5b610060600480360381019061005b91906103ab565b6100b0565b60405161006d9190610413565b60405180910390f35b610090600480360381019061008b9190610452565b61018d565b005b61009a6101df565b6040516100a791906104b4565b60405180910390f35b60006100ba6101df565b83839050146100cc5760009050610187565b6000806000815481106100e2576100e16104cf565b5b906000526020600020015490506000600190505b60015481101561018057600061013c838787600186610115919061052d565b818110610125576101246104cf565b5b90506020028101906101379190610570565b6101f4565b905060008281548110610152576101516104cf565b5b9060005260206000200154811461016f5760009350505050610187565b8092505080806001019150506100f6565b5060019150505b92915050565b600061019882610283565b90506000819080600181540180825580915050600190039060005260206000200160009091909190915055600160008154809291906101d690610598565b91905055505050565b6000600180546101ef919061052d565b905090565b600081806000019061020691906105e0565b836020016020810190610219919061069b565b84604001602081019061022c919061069b565b85806060019061023c91906105e0565b87806080019061024c91906105e0565b8a60405160200161026599989796959493929190610753565b60405160208183030381529060405280519060200120905092915050565b600081806000019061029591906105e0565b8360200160208101906102a8919061069b565b8460400160208101906102bb919061069b565b8580606001906102cb91906105e0565b8780608001906102db91906105e0565b6000600180546102eb919061052d565b815481106102fc576102fb6104cf565b5b906000526020600020015460405160200161031f99989796959493929190610753565b604051602081830303815290604052805190602001209050919050565b600080fd5b600080fd5b600080fd5b600080fd5b600080fd5b60008083601f84011261036b5761036a610346565b5b8235905067ffffffffffffffff8111156103885761038761034b565b5b6020830191508360208202830111156103a4576103a3610350565b5b9250929050565b600080602083850312156103c2576103c161033c565b5b600083013567ffffffffffffffff8111156103e0576103df610341565b5b6103ec85828601610355565b92509250509250929050565b60008115159050919050565b61040d816103f8565b82525050565b60006020820190506104286000830184610404565b92915050565b600080fd5b600060a082840312156104495761044861042e565b5b81905092915050565b6000602082840312156104685761046761033c565b5b600082013567ffffffffffffffff81111561048657610485610341565b5b61049284828501610433565b91505092915050565b6000819050919050565b6104ae8161049b565b82525050565b60006020820190506104c960008301846104a5565b92915050565b7f4e487b7100000000000000000000000000000000000000000000000000000000600052603260045260246000fd5b7f4e487b7100000000000000000000000000000000000000000000000000000000600052601160045260246000fd5b60006105388261049b565b91506105438361049b565b925082820390508181111561055b5761055a6104fe565b5b92915050565b600080fd5b600080fd5b600080fd5b60008235600160a00383360303811261058c5761058b610561565b5b80830191505092915050565b60006105a38261049b565b91507fffffffffffffffffffffffffffffffffffffffffffffffffffffffffffffffff82036105d5576105d46104fe565b5b600182019050919050565b600080833560016020038436030381126105fd576105fc610561565b5b80840192508235915067ffffffffffffffff82111561061f5761061e610566565b5b60208301925060018202360383131561063b5761063a61056b565b5b509250929050565b60007fffffffffffffffffffffffffffffffff0000000000000000000000000000000082169050919050565b61067881610643565b811461068357600080fd5b50565b6000813590506106958161066f565b92915050565b6000602082840312156106b1576106b061033c565b5b60006106bf84828501610686565b91505092915050565b600081905092915050565b82818337600083830152505050565b60006106ee83856106c8565b93506106fb8385846106d3565b82840190509392505050565b6000819050919050565b61072261071d82610643565b610707565b82525050565b6000819050919050565b6000819050919050565b61074d61074882610728565b610732565b82525050565b6000610760828b8d6106e2565b915061076c828a610711565b60108201915061077c8289610711565b60108201915061078d8287896106e2565b915061079a8285876106e2565b91506107a6828461073c565b6020820191508190509a995050505050505050505056fea2646970667358221220bf14bd6bbf2faed63c5c3f6c0f6e8948305a05237013e90812070308b32dd94c64736f6c634300081c0033",
  "linkReferences": {},
  "deployedLinkReferences": {}
}